S015000046696E616C2070726F6A6563742E737265630E
S11300000C94D7020C94F4020C94F4020C94F402B1
S11300100C94F4020C94F4020C94F4020C94F40284
S11300200C94F4020C94F4020C94F4020C94F40274
S11300300C94F4020C94F4020C94F4020C94F40264
S11300400C94F4020C94F4020C94F4020C94F40254
S11300500C94F40246074007420744074707470742
S1130060470747074707470747074707470747071C
S1130070470747074707470747074707470747070C
S113008047074707470747074707470747074707FC
S113009047074707460740074207440757077007C3
S11300A08907A207BA07BA07BA07BA07BA07BA078D
S11300B0BA07BA07BA07BA07BA07BA07BA07BA0734
S11300C0BA07BA07BA07BA07BA07BA07BA07BA0724
S11300D0BA07BA07BA07BA07BA07BA07BA07BA0714
S11300E0BA07BA07BA07BA07BA07BA07BA07BA0704
S11300F0BA07BA07BA07BA07BA07BA07BA07BA07F4
S1130100BA07BA07BA07BA07BA07BA07BA07BA07E3
S1130110BA07BA07BA07BA07BA07BA07BA07570736
S113012070078907A207BA07BA07BA07BA07BA0756
S1130130BA07BA07BA07BA07BA07BA07BA07BA07B3
S1130140BA07BA07BA07BA07BA07BA07BA07BA07A3
S1130150BA07BA07BA07BA07BA07BA07BA075707F6
S113016070078907A207D107CB07CD07CF07D207AE
S1130170D207D207D207D207D207D207D207D207B3
S1130180D207D207D207D207D207D207D207D207A3
S1130190D207D207D207D207D207D207D207D20793
S11301A0D207D207D207D107CB07CD07CF07E20783
S11301B0FB0714082D084508450845084508450867
S11301C045084508450845084508450845084508C3
S11301D045084508450845084508450845084508B3
S11301E045084508450845084508450845084508A3
S11301F04508450845084508450845084508450893
S11302004508450845084508450845084508450882
S11302104508450845084508450845084508450872
S11302204508450845084508450845084508450862
S1130230E207FB0714082D0845084508450845084A
S11302404508450845084508450845084508450842
S11302504508450845084508450845084508450832
S11302604508450845084508450845084508450822
S1130270E207FB0714082D085B08550857085908BE
S11302805C085C085C085C085C085C085C085C084A
S11302905C085C085C085C085C085C085C085C083A
S11302A05C085C085C085C085C085C085C085C082A
S11302B05C085C085C085C085B085508570859082A
S11302C0690872087B0884089108910891089108CC
S11302D09108910891089108910891089108910852
S11302E09108910891089108910891089108910842
S11302F09108910891089108910891089108910832
S11303009108910891089108910891089108910821
S11303109108910891089108910891089108910811
S11303209108910891089108910891089108910801
S113033091089108910891089108910891089108F1
S11303409108690872087B0884089108910891084B
S113035091089108910891089108910891089108D1
S113036091089108910891089108910891089108C1
S113037091089108910891089108910891089108B1
S11303809108690872087B088408A608A008A208D6
S1130390A408A708A708A708A708A708A708A708E4
S11303A0A708A708A708A708A708A708A708A708D1
S11303B0A708A708A708A708A708A708A708A708C1
S11303C0A708A708A708A708A708A608A008A208BE
S11303D0A408B208B408B608B808B908B908B90836
S11303E0B908B908B908B908B908B908B908B90801
S11303F0B908B908B908B908B908B908B908B908F1
S1130400B908B908B908B908B908B908B908B908E0
S1130410B908B908B908B908B908B908B908B908D0
S1130420B908B908B908B908B908B908B908B908C0
S1130430B908B908B908B908B908B908B908B908B0
S1130440B908B908B908B908B908B908B908B908A0
S1130450B908B908B208B408B608B808B908B908A0
S1130460B908B908B908B908B908B908B908B90880
S1130470B908B908B908B908B908B908B908B90870
S1130480B908B908B908B908B908B908B908B90860
S1130490B908B908B208B408B608B808CD08C7083E
S11304A0C908CB08CE08CE08CE08CE08CE08CE08A0
S11304B0CE08CE08CE08CE08CE08CE08CE08CE0888
S11304C0CE08CE08CE08CE08CE08CE08CE08CE0878
S11304D0CE08CE08CE08CE08CE08CE08CD08C70870
S11304E0C908CB08D908DB08DD08DF08E008E00804
S11304F0E008E008E008E008E008E008E008E008B8
S1130500E008E008E008E008E008E008E008E008A7
S1130510E008E008E008E008E008E008E008E00897
S1130520E008E008E008E008E008E008E008E00887
S1130530E008E008E008E008E008E008E008E00877
S1130540E008E008E008E008E008E008E008E00867
S1130550E008E008E008E008E008E008E008E00857
S1130560E008E008E008D908DB08DD08DF08E00857
S1130570E008E008E008E008E008E008E008E00837
S1130580E008E008E008E008E008E008E008E00827
S1130590E008E008E008E008E008E008E008E00817
S11305A0E008E008E008D908DB08DD08DF081124CA
S11305B01FBECFE5D8E0DEBFCDBF10E0A0E6B0E0BF
S11305C0E6E2F6E102C005900D92AE3EB107D9F71E
S11305D020E0AEEEB0E001C01D92A83FB207E1F703
S11305E00E940D070C94110B0C9400000E940B0642
S11305F00E9469040E9416070E94D30608959C0174
S113060090E005C0F901E90FF11D10829F5F961774
S1130610C8F30895CF93DF93DC01EB01FC01019053
S11306200020E9F73197AF01481B590BFB010190FA
S11306300020E9F73197E61BF70B4E175F07A1F48B
S113064090E00BC0FD01E20FF31F7081FE01E20F89
S1130650F31F208172130AC09F5F292F30E02417F3
S1130660350780F381E003C080E001C080E0DF91C2
S1130670CF9108951F93CF93DF931092EE000E94C1
S1130680960685E790E00E94500662E081E00E94B1
S113069063068AE30E941B0618E741C0C9E81C9F51
S11306A0C12D1124C295C695C77060E081E00E94F7
S11306B0630660E070E0CB010E9472066C2F70E06C
S11306C080E090E00E9472068AE30E941B06612F7C
S11306D070E0CB012CE3C29F801991091124EC0135
S11306E08A3091053CF0BC01990F880B990B0E944C
S11306F072060BC060E070E0CB010E947206BE017E
S1130700DD0F880B990B0E9472068FE39DE023E0B6
S1130710815090402040E1F700C0000011501111B9
S1130720BDCFDF91CF911F910895CF93DF930E94A6
S1130730960685E890E00E94500660E081E00E9401
S1130740630682E990E00E9450065BC0C0E00E940C
S11307507A04833671F08130D1F3D1E0DC0FEC2FD1
S1130760F0E0E051FF4F80838AE20E941B06CD2F08
S1130770EECF60E670E080EF90E00E940A038130E3
S1130780A9F40E9496068CE990E00E9450062FE797
S11307908AE196E0215080409040E1F700C00000DB
S11307A00E94960681E08093EF0030C08091EE00B5
S11307B08F5F8093EE0068E080EF90E00E94FF027C
S11307C00E9496068DEA90E00E94500660E081E067
S11307D00E9463068CEB90E00E9450062FE38DE0AC
S11307E093E0215080409040E1F700C000008091E8
S11307F0EE00833011F40E943A031092EF000E943D
S113080095038091EF00882309F4A0CFDF91CF9165
S113081008950E947A04813339F467E070E081E03E
S113082090E00E949A060895823331F467E070E004
S113083081E090E00E94A90608950F931F930E94FF
S113084096068DEC90E00E9450062FE38DE093E035
S1130850215080409040E1F700C000000E949606BD
S113086087ED90E00E94500660E081E00E946306FC
S113087082EE90E00E94500625C00E9409040E9466
S1130880B8060E9478096E3171058105910518F04A
S11308900E94E10617C08B019C010A51110921092C
S11308A03109043011052105310528F482E390E073
S11308B00E94FF0607C06A3171058105910510F495
S11308C00E94F0068091EF008130B9F21F910F91E0
S11308D0089560E082E00E9493086FE082E00E9445
S11308E0BA0860EF82E00E9493086FEF82E00E94F2
S11308F0BA080895AF92BF92CF92DF92EF92FF921F
S11309000F931F93CF93DF93CDB7DEB768970FB6DE
S1130910F894DEBF0FBECDBF198281E08A8382E0E6
S11309208B8383E08C8384E08D8385E08E8386E0F3
S11309308F8387E08887B12C4FC0CB2CD12CE5E086
S1130940F0E0EC0FFD1FEC0DFD1DA08040E06A2DD2
S113095082E00E94BD0710E037C0E12EF12CE1E0F7
S1130960F0E0EC0FFD1FEE0DFF1D0081602F82E013
S11309700E944808811127C0EFE5FAEE3197F1F79C
S113098000C0000081111FC004C0602F82E00E94DB
S113099048088823D1F380E1E5E6F0E0DE0119960A
S11309A001900D928A95E1F7EE0CFF1CEE0CFF1CF2
S11309B081E090E08C0F9D1FE80EF91EF701EC0D0D
S11309C0FD1D80850EC01F5F143038F241E06A2D92
S11309D082E00E94BD07B39493E09B1508F0ADCF6D
S11309E081E068960FB6F894DEBF0FBECDBFDF91ED
S11309F0CF911F910F91FF90EF90DF90CF90BF9018
S1130A00AF9008952F923F924F925F926F927F9290
S1130A108F929F92AF92BF92CF92DF92EF92FF920A
S1130A200F931F93CF93DF93CDB7DEB72A970FB6FB
S1130A30F894DEBF0FBECDBF4B015C011A010983E0
S1130A401A832B833C83611571058105910531F46B
S1130A5080E3DA018C9311961C928EC09923CCF416
S1130A6089819A81AB81BC810A97A105B105B1F452
S1130A70B094A09490948094811C911CA11CB11CEE
S1130A8081E090E0A0E0B0E08D839E83AF83B887DF
S1130A9009C01D821E821F82188604C01D821E8208
S1130AA01F821886C12CD12C760127C0C501B40140
S1130AB029813A814B815C810E94B60A2601370163
S1130AC0AFEF4A1A5A0A6A0A7A0AF101EC0DFD1DBF
S1130AD06A3071058105910514F0695C01C0605D9F
S1130AE06083C501B40129813A814B815C810E94F4
S1130AF0B60A49015A017301620181149104A104E7
S1130B00B104A1F68D819E81AF81B885892B8A2B92
S1130B108B2B51F0F101EC0DFD1D8DE280839FEFD5
S1130B20C91AD90AE90AF90AF101EC0DFD1D10826E
S1130B30A1E0CA1AD108E108F10880E090E0DC01E4
S1130B4016C09101280F391FF9014081B1016C0DC4
S1130B507D1DFB015081F9015083FB014083019607
S1130B60A11DB11DF1E0CF1AD108E108F1088C15DF
S1130B709D05AE05BF052CF3C1012A960FB6F89466
S1130B80DEBF0FBECDBFDF91CF911F910F91FF90BC
S1130B90EF90DF90CF90BF90AF909F908F907F9019
S1130BA06F905F904F903F902F900895CF93C82FF0
S1130BB041E066E081E00E94320740E066E081E0C7
S1130BC00E94BD0741E065E081E00E94320740E0F9
S1130BD065E081E00E94BD076FEF83E00E94930807
S1130BE06C2F83E00E94BA0841E064E081E00E9437
S1130BF0320741E064E081E00E94BD078FE99FE095
S1130C000197F1F700C0000040E064E081E00E9439
S1130C10BD07CF9108958FEF99EF0197F1F700C0C9
S1130C20000088E30E94D6058CE00E94D60581E08E
S1130C300E94D6050895CF93C82F41E066E081E075
S1130C400E94320741E066E081E00E94BD0741E076
S1130C5065E081E00E94320740E065E081E00E94A7
S1130C60BD076FEF83E00E9493086C2F83E00E941E
S1130C70BA0841E064E081E00E94320741E064E0A8
S1130C8081E00E94BD078FE99FE00197F1F700C062
S1130C90000040E064E081E00E94BD07CF91089528
S1130CA00F931F93CF938C01C0E003C00E941B06D7
S1130CB0CF5FF801EC0FF11D80818111F7CFCF9147
S1130CC01F910F910895882319F0813021F006C0F7
S1130CD080E8860F04C080EC860F01C080E80E9483
S1130CE0D60508950F931F93CF93DF93CDB7DEB747
S1130CF060970FB6F894DEBF0FBECDBF0AE010E0D8
S1130D0020E030E0AE014F5F5F4F0E940205CE014C
S1130D1001960E94500660960FB6F894DEBF0FBE8F
S1130D20CDBFDF91CF911F910F91089581E00E9473
S1130D30D6050895CF93DF93C82FD62F41E00E94A4
S1130D40320741E06D2F8C2F0E94BD07DF91CF91B8
S1130D500895CF93DF93C82FD62F41E00E94320726
S1130D6040E06D2F8C2F0E94BD07DF91CF91089535
S1130D7080E00E941A07BC0180E090E00E94A7096D
S1130D8020E030E040EA50E40E94350A20E030ECF4
S1130D904FE754E40E94060920E030E048EC52E4B6
S1130DA00E94350A089541E065E080E00E94320720
S1130DB041E066E080E00E94320780E00E94E108A2
S1130DC0089560E084E60E94F50841E065E080E073
S1130DD00E94BD0740E066E080E00E94BD070895E0
S1130DE060E080E00E94F50840E065E080E00E9459
S1130DF0BD0740E066E080E00E94BD07089560E022
S1130E000E94F50841E065E080E00E94BD0740E0F3
S1130E1066E080E00E94BD0708950E94F6020E94E9
S1130E2095030E9496060E941D04F9CF17B883E823
S1130E3086B90895877097B1907E97B997B1892B39
S1130E4087B986B1806486B9349BFECF86B1806150
S1130E5086B989EF90E00197F1F700C0000084B1F2
S1130E6095B108950F931F93082F10E0F801E154F2
S1130E70F109E432F10558F4E65DFF4F0C94D50A0C
S1130E8081E005C082E003C083E001C080E06830F7
S1130E9008F070C0843008F06DC090E0853691058C
S1130EA008F068C0FC01E25BFF4F0C94D50A4130A6
S1130EB059F42AB381E090E002C0880F991F6A9523
S1130EC0E2F7822B8ABB56C02AB381E090E002C0CD
S1130ED0880F991F6A95E2F7809582238ABB4AC0DE
S1130EE0413059F427B381E090E002C0880F991F84
S1130EF06A95E2F7822B87BB3DC027B381E090E07F
S1130F0002C0880F991F6A95E2F78095822387BBF8
S1130F1031C0413059F424B381E090E002C0880F1D
S1130F20991F6A95E2F7822B84BB24C024B381E025
S1130F3090E002C0880F991F6A95E2F7809582239A
S1130F4084BB18C0413059F421B381E090E002C061
S1130F50880F991F6A95E2F7822B81BB0BC021B3DE
S1130F6081E090E002C0880F991F6A95E2F78095AE
S1130F70822381BB1F910F9108950F931F93082F14
S1130F8010E0F801E154F109E432F10558F4ED54AC
S1130F90FF4F0C94D50A81E005C082E003C083E0D2
S1130FA001C080E0683008F070C0843008F06DC083
S1130FB090E08536910508F068C0FC01E952FF4FC6
S1130FC00C94D50A413059F42BB381E090E002C06F
S1130FD0880F991F6A95E2F7822B8BBB56C02BB3FF
S1130FE081E090E002C0880F991F6A95E2F780952E
S1130FF082238BBB4AC0413059F428B381E090E08E
S113100002C0880F991F6A95E2F7822B88BB3DC006
S113101028B381E090E002C0880F991F6A95E2F737
S11310208095822388BB31C0413059F425B381E0D7
S113103090E002C0880F991F6A95E2F7822B85BB66
S113104024C025B381E090E002C0880F991F6A95FF
S1131050E2F78095822385BB18C0413059F422B34E
S113106081E090E002C0880F991F6A95E2F7822B15
S113107082BB0BC022B381E090E002C0880F991FAD
S11310806A95E2F78095822382BB1F910F910895A0
S1131090262F482F50E0FA01E154F109E432F1051A
S11310A058F4E45CFE4F0C94D50A81E005C082E05C
S11310B003C083E001C080E0283078F5843078F5FF
S11310C090E08536910568F5FC01E05AFE4F0C94DA
S11310D0D50A89B390E002C0959587952A95E2F7E1
S11310E08170089586B390E002C0959587952A95FE
S11310F0E2F78170089583B390E002C095958795D7
S11311002A95E2F78170089580B390E002C0959526
S113111087952A95E2F78170089580E0089580E02C
S1131120089580E00895262F482F50E0FA01E154F5
S1131130F109E432F10558F4EB53FE4F0C94D50A4F
S113114081E005C082E003C083E001C080E0843018
S113115080F490E08536910560F4FC01E751FE4F80
S11311600C94D50A2ABB089527BB089524BB08957F
S113117021BB0895262F482F50E0FA01E154F109CC
S1131180E432F10558F4E25BFD4F0C94D50A81E09A
S113119005C082E003C083E001C080E0843080F4B5
S11311A090E08536910560F4FC01EE58FD4F0C94F7
S11311B0D50A2BBB089528BB089525BB089522BBEF
S11311C00895882351F0823079F481B3806881BB1B
S11311D015BC89E685BD14BC089587B3886087BBB8
S11311E013BE89E683BF12BE0895262F3FEF839F67
S11311F0C001112464E670E00E94A20A222321F0B7
S1131200223019F463BD08956CBF08950E941A0931
S11312100C94FB090E94F40958F00E94ED0940F077
S113122029F45F3F29F00C94E40951110C942F0A1E
S11312300C94EA090E940C0A68F39923B1F355232C
S113124091F3951B550BBB27AA27621773078407D5
S113125038F09F5F5F4F220F331F441FAA1FA9F36B
S113126035D00E2E3AF0E0E832D091505040E69559
S1131270001CCAF72BD0FE2F29D0660F771F881FBA
S1131280BB1F261737074807AB07B0E809F0BB0BAD
S1131290802DBF01FF2793585F4F3AF09E3F5105C1
S11312A078F00C94E4090C942F0A5F3FE4F3983E21
S11312B0D4F3869577956795B795F7959F5FC9F7AA
S11312C0880F911D9695879597F90895E1E0660F2B
S11312D0771F881FBB1F621773078407BA0720F0A4
S11312E0621B730B840BBA0BEE1F88F7E09508950D
S11312F00E94140A88F09F5798F0B92F9927B75184
S1131300B0F0E1F0660F771F881F991F1AF0BA95A5
S1131310C9F714C0B13091F00E942E0AB1E00895CB
S11313200C942E0A672F782F8827B85F39F0B93FBD
S1131330CCF3869577956795B395D9F73EF4909558
S11313408095709561957F4F8F4F9F4F0895E894D6
S113135009C097FB3EF490958095709561957F4FF9
S11313608F4F9F4F9923A9F0F92F96E9BB279395A7
S1131370F695879577956795B795F111F8CFFAF4B7
S1131380BB0F11F460FF1BC06F5F7F4F8F4F9F4FE8
S113139016C0882311F096E911C0772321F09EE846
S11313A0872F762F05C0662371F096E8862F70E0AC
S11313B060E02AF09A95660F771F881FDAF7880F86
S11313C09695879597F9089597F99F6780E870E057
S11313D060E008959FEF80EC089500240A941616A7
S11313E0170618060906089500240A94121613060F
S11313F0140605060895092E0394000C11F488239D
S113140052F0BB0F40F4BF2B11F460FF04C06F5FB8
S11314107F4F8F4F9F4F089557FD9058440F551F8E
S113142059F05F3F71F04795880F97FB991F61F062
S11314309F3F79F087950895121613061406551FD9
S1131440F2CF4695F1DF08C0161617061806991F45
S1131450F1CF86957105610508940895E894BB273A
S113146066277727CB0197F908950E94480A0C94C0
S1131470FB090E94ED0938F00E94F40920F095233D
S113148011F00C94E4090C94EA0911240C942F0A29
S11314900E940C0A70F3959FC1F3950F50E0551FFD
S11314A0629FF001729FBB27F00DB11D639FAA27B5
S11314B0F00DB11DAA1F649F6627B00DA11D661F04
S11314C0829F2227B00DA11D621F739FB00DA11D25
S11314D0621F839FA00D611D221F749F3327A00DDF
S11314E0611D231F849F600D211D822F762F6A2F7B
S11314F011249F5750409AF0F1F088234AF0EE0FE0
S1131500FF1FBB1F661F771F881F91505040A9F70C
S11315109E3F510580F00C94E4090C942F0A5F3F20
S1131520E4F3983ED4F3869577956795B795F79548
S1131530E7959F5FC1F7FE2B880F911D96958795C0
S113154097F9089597FB072E16F4009407D077FDBA
S113155009D00E94DB0A07FC05D03EF490958195E2
S11315609F4F0895709561957F4F0895052E97FBC1
S11315701EF400940E94CD0A57FD07D00E94EF0A82
S113158007FC03D04EF40C94CD0A50954095309549
S113159021953F4F4F4F5F4F0895909580957095DB
S11315A061957F4F8F4F9F4F0895EE0FFF1F05905A
S11315B0F491E02D0994AA1BBB1B51E107C0AA1F9B
S11315C0BB1FA617B70710F0A61BB70B881F991FE0
S11315D05A95A9F780959095BC01CD010895A1E293
S11315E01A2EAA1BBB1BFD010DC0AA1FBB1FEE1F99
S11315F0FF1FA217B307E407F50720F0A21BB30BE4
S1131600E40BF50B661F771F881F991F1A9469F75F
S113161060957095809590959B01AC01BD01CF01BB
S10916200895F894FFCFC9
S113162631323334003738392F3435362A313233B0
S11316362D63303D2B53797374656D204F66662098
S1131646666F723A00506C6561736520456E746509
S1131656720050617373776F72643A0057656C63F6
S11316666F6D652041686D65642021210057726F96
S11316766E672050617373776F726400506C656196
S113168673652054727920616761696E00537973BA
S113169674656D204F4E00312D204C656473204FC8
S11116A64E00322D204C656473204F464600E2
S9030000FC
